:070B4E007590E075B0F32281
:1009FD00E58954F04401F589C2A9E4FF758CEEE454
:0F0A0D00F58AD28C308DFDC28D0FBFC8EFC28C21
:010A1C0022B7
:100ACD00E58954F04401F589C2A9758CFF758AD268
:0A0ADD00D28C308DFDC28DC28C2238
:100AE700E58954F04401F589C2A9758CF8758ACD5A
:0A0AF700D28C308DFDC28DC28C221E
:100A3D00C2B3D2B2C290C291C292C293C2B200D21C
:0E0A4D00B2C290D291D292C293C2B2020ACD2E
:100A5B00C2B3D2B2C290C291D292C293C2B200D2EE
:0E0A6B00B2D290C291C292C293C2B2020ACD20
:1009BB00C2B3D2B2C290C291C292C293C2B200D29F
:1009CB00B2C290C291C292D293C2B2120AE7020A89
:0109DB00E734
:100A7900C2B3D2B2C290C291C292C293C2B200D2E0
:0E0A8900B2D290D291D292D293C2B2020ACDD2
:100A9700120B4E538FFE1209FD120A5B120A7912CE
:0B0AA70009BB120A3D120AE7D294229C
:10089D00D2B3D2B2EFC41313135401139290EFC419
:1008AD0013135403139291EFC4135407139292EF41
:1008BD00C4540F139293C2B200D2B2EF1313135458
:1008CD001F139290EF1313543F139291EFC3131311
:0B08DD009292EF139293C2B2020ACD78
:060A1D008B0C8A0D890E0E
:100A2300E4FEAB0CAA0DA90E8E827583001205C7D6
:090A3300FF600612089D0E80E927
:010A3C002297
:1009DC00C2B3D2B2D290D291C292C293C2B200D25E
:1009EC00B2C290C291C292C293C2B2120AE7020A78
:0109FC00E713
:090B3C00E4F5A07580FFC2A022BF
:03001600D2A02253
:03001E00C2A0225B
:1008E800013E00093F475245534B410D0A00053967
:0508F8004F4B0D0A004A
:10000300759850438780759B1C759AFDD299C29849
:03001300D29C225A
:030B5B00D2AC22F7
:0C0B26008B228A2389241205AEF5992247
:10038200E5256428702DE52664537027E52764541B
:100392007021E528B44F1CE529B45017E52AB42989
:1003A20012E4F54812001E120B5E7B007A007939C6
:1003B200020473E54864026005E548B403097B0062
:1003C2007A00793F020473E548703CE525642870A1
:1003D2002AE52664537024E527B4541FE528B44166
:1003E2001AE529B45215E52AB45410E52BB4290BA9
:1003F2007548017B007A00793980067B007A0079A2
:100402003F120B260204E0E548640160030204E2A5
:10041200E52564287025E5266442701FE527B4525D
:100422001AE528B44F15E529B44A10E52AB4490B58
:10043200E52BB429067548020204C7E52564286045
:0D044200030204D7E526644D60030204D7D1
:10044F00F509F50A750B027425250BF8E6FF6429EB
:10045F00603BEFC394304006EFD39439400B7B00E1
:10046F007A00793F120B26806AEF24D0FBE434FF29
:10047F00FAAE09AF0A7C007D0A1205F4EF2BF50ADC
:10048F00EE3AF509050BE50BC3941440BA74252514
:10049F000BF8E6B4292AD3E50A9400E50994004045
:1004AF001FD3E50A94FFE50994005014850A67E409
:1004BF00F549120B147548037B007A007939800EC9
:0604CF007B007A00793F7A
:1004D50080067B007A00793F120B268000E4F53E0A
:0104E50022F4
:03002300020819B7
:10081900C0E0C0F0C083C082C0D075D000C000C0A5
:1008290001C002C003C004C005C006C00730991941
:10083900C299AB220524E52470020523F9AA2312E3
:0C08490005AE60051205AEF59930982D43
:10085500859908C298E508B42803753E00E53EC3AE
:100865009413500AAF3E053E74252FF8A608E508F7
:0D087500B4290A7425253EF876001203828E
:10088200D007D006D005D004D003D002D001D000CA
:0B089200D0D0D082D083D0F0D0E03274
:10096C0053544F5000543A256C75004F4E0052456D
:10097C004144590052554E004E3A257520543A25A3
:08098C006C75004D4F5645004B
:1008FD00014800014900016700014B00014A00C198
:10090D0009C10A016500044C0000000001660004E5
:05091D00500000000085
:0A0B3200E4F548F549F567020B14DD
:060B5500E4F549020B1457
:10092F00A2819200A282920130000520090205499E
:10093F00300121200A1EE548B40219854966AF6FC0
:10094F00AE6EAD6DAC6C8F538E528D518C50120BB1
:0C095F0055120B45A2009209A201920A59
:01096B002269
:1004E6001209BBE54814603014604114607B240394
:1004F60060030205AD7BFF7A09796C120A1D1209A9
:10050600DC750FFF75100975117185531585521429
:1005160085511385501280407BFF7A097977120A3C
:100526001D1209DC7BFF7A09797A80787BFF7A09CC
:100536007980120A1D1209DC750FFF7510097511F5
:1005460084AF497512008F13AF6FAE6EAD6DAC6C94
:100556008F178E168D158C147B007A007954120035
:10056600827B007A007954803B7BFF7A09798F126F
:100576000A1D1209DC750FFF751009751184AF4944
:100586007512008F13AF6FAE6EAD6DAC6C8F178E9C
:10059600168D158C147B007A0079541200827B002C
:0805A6007A007954120A1D22AB
:10065F00E548654B6025E54814600C146011146083
:10066F000E24037013800012001E120B5E800912FD
:10067F000B55120B4512001685484BE54864026076
:10068F0005E548B4030312092FE548B40323E549F0
:10069F00C39567401C12001E120B5E854966AF6F33
:1006AF00AE6EAD6DAC6C8F538E528D518C50E4F598
:1006BF0048E548B54A1BE549B56516AF4FAE4EAD97
:1006CF004DAC4CAB6FAA6EA96DA86CC31206066039
:1006DF00191204E685484A854965AF6FAE6EAD6D58
:0B06EF00AC6C8F4F8E4E8D4D8C4C225A
:100AB200120B3C120A97120003120B5B120B01126B
:0B0AC2000B32D2AFD2AB12065F80FBFC
:0C092200046800000000046C00000000ED
:100B0100E589540F4410F589758DFC758B67D2AB5F
:030B1100C28E226F
:090B4500758DFC758B67D28E22C0
:030B5E00C28E2222
:100B1400E4F56BF56AF569F568F56FF56EF56DF555
:020B24006C2241
:03001B000206FAE0
:1006FA00C0E0C0F0C083C082C0D075D000C000C0C6
:10070A0001C002C003C004C005C006C007C28F757D
:10071A008DFC758B67AF6BAE6AAD69AC68EF24016F
:10072A00F56BE43EF56AE43DF569E43CF568E47F7F
:10073A00E87E03FDFCAB6BAA6AA969A868C3120626
:10074A00064025AF6FAE6EAD6DAC6CEF2401F56F50
:10075A00E43EF56EE43DF56DE43CF56C756B0075B1
:10076A006A00756900756800D007D006D005D00404
:10077A00D003D002D001D000D0D0D082D083D0F024
:03078A00D0E0328A
:0300000002078D67
:0C078D00787FE4F6D8FD75816F0207D478
:1005AE00BB010689828A83E0225002E722BBFE024B
:0905BE00E32289828A83E493227E
:1005C700BB010CE58229F582E5833AF583E02250E9
:1005D70006E92582F8E622BBFE06E92582F8E22233
:0D05E700E58229F582E5833AF583E493224D
:1005F400EF8DF0A4A8F0CF8CF0A428CE8DF0A42E1B
:02060400FE22D4
:10060600EB9FF5F0EA9E42F0E99D42F0E89C45F04A
:0106160022C1
:10002600E51B240FF8E6051B22780C300702780F33
:10003600E475F0011206290205AE2000EB7F2ED2F0
:10004600008018EF540F2490D43440D4FF30040BB2
:10005600EF24BFB41A0050032461FFE51C600215AB
:100066001C051FE51F7002051E30070D780CE47590
:10007600F001120629EF0206170209947403D2074B
:100086008003E4C207F51B8B0C8A0D890EE4F51C70
:10009600F51EF51FE51C60077F2012006180F575CF
:1000A6001DFFC201C200C202C203C205C206C208C7
:1000B60012002FFF700D3007057F00120072AF1F70
:1000C600AE1E22B4255FC2D5C20412002FFF24D073
:1000D600B40A00501A75F00A781C30D50508B6FF28
:1000E6000106C6A426F620D5047002D20380D924C0
:1000F600CFB41A00EF5004C2E5D204020272D20154
:1001060080C6D20080C0D20280BCD2D580BAD205C9
:1001160080B47F201200612002077401B51C0040E4
:10012600F1120026FF12006102009AD208D2068060
:1001360095120026FB120026FA120026F94A4B7089
:100146000679437A037BFF20022EE51C602A7E0097
:100156008E827583001205C760060EEE651D70F06F
:10016600C2D5EBC0E0EAC0E0E9C0E0EE1202B9D0C9
:10017600E0F9D0E0FAD0E0FB1205AEFF60AAEBC0D2
:10018600E0EAC0E0E9C0E0120061D0E02401F9D065
:10019600E03400FAD0E0FBE51D0460DCD51DD98013
:1001A600877BFF7A0279B5D202809C79108002792A
:1001B60008C206C2088008D2D5790A8004790AC224
:1001C600D5E51D047002F51DE4FAFDFEFF120026BA
:1001D600FC7B08200113120026FD7B1030000A125A
:1001E6000026FE120026FF7B20EC3382D592D550E6
:1001F60013C3E43000069FFFE49EFEE42001039D46
:10020600FDE49CFCE4CBF8C201EC700CCFCECDCC67
:10021600E824F8F870F38017C3EF33FFEE33FEEDF2
:1002260033FDEC33FCEB33FB994002FB0FD8E9EBD3
:10023600300105F8D0E0C448B201C0E00AEC4D4EEA
:100246004F78207B0070C2EAB51D0040BCC0E012AA
:1002560002BBD0F0D0E0200104C4C0E0C4B201C0AB
:10026600F012004AD0F0D5F0EB02009A12063901DE
:10027600375301B15801084C01044201B54F01BD85
:0F0286004401BD49011D4301C35501A74601A70E
:100295004501A747036350010C2D01102E01332B97
:1002A500011423013120034C2A00CC480000012B06
:1002B5003F3F3F00790AA2D5200314300509B91044
:1002C500020404B9080104A2D52006025001042045
:1002D50002689202B51C005034C0E07F203003193B
:1002E5007F30A20272067205500F120312C202C2BB
:1002F50006C205C2087F30800F300503E9C0E01251
:100305000061300503D0E0F9D0E0B51CCC3005170D
:100315007F30B9100C1200617F583004077F788058
:1003250003B908031200613002057F2D0200617FC9
:10033500202008F87F2B2006F322920280CF286E1A
:10034500756C6C2900D2011200263001F8C20178C3
:100355001C30D50108F60200CC2D50434958120037
:10036500262403B405004001E490035E9312005275
:0D037500743A120052D203751C040201B14B
:10079900020AB2E493A3F8E493A34003F68001F2BA
:1007A90008DFF48029E493A3F85407240CC8C33361
:1007B900C4540F4420C8834004F456800146F6DF30
:1007C900E4800B01020408102040809008E8E47ED0
:1007D900019360BCA3FF543F30E509541FFEE49325
:1007E900A360010ECF54C025E060A840B8E493A3EC
:1007F900FAE493A3F8E493A3C8C582C8CAC583CA17
:10080900F0A3C8C582C8CAC583CADFE9DEE780BECE
:01092E0000C8
:10061700BB010689828A83F0225002F722BBFE01C2
:02062700F322BC
:10062900FAE6FB0808E6F925F0F618E6CA3AF622D2
:10063900D083D082F8E4937012740193700DA3A350
:1006490093F8740193F5828883E473740293686064
:06065900EFA3A3A380DF64
:10099400EFB40A07740D12099F740A309811A899CC
:1009A400B8130CC2983098FDA899C298B811F630C3
:0709B40099FDC299F599229B
:00000001FF
